:100000000C9434000C943E000C943E000C943E0082
:100010000C943E000C943E000C943E000C943E0068
:100020000C943E000C943E000C943E000C943E0058
:100030000C943E000C943E000C943E000C943E0048
:100040000C943E000C943E000C943E000C943E0038
:100050000C943E000C943E000C943E000C943E0028
:100060000C943E000C943E0011241FBECFEFD8E04C
:10007000DEBFCDBF0E9440000C945E000C940000D7
:100080008AB11AB8259A89B1847099B198704C9B3D
:100090000BC0992381F081110EC085B989B184709C
:1000A00099B198704C99F5CF8823B9F3911103C099
:1000B00080E085B9F3CF80E285B9F0CFF894FFCF27
:00000001FF
